S013000031355F436F756E746572332E7372656339
S113000045C0000060C000005EC000005CC000008D
S11300105AC0000058C0000056C0000054C0000080
S113002052C0000050C000004EC000004CC0000090
S11300304AC0000048C0000046C0000044C00000A0
S113004043C0000040C000003EC000003CC00000AF
S11300503AC0000038C0000036C0000034C00000C0
S113006032C0000030C000002EC000002CC00000D0
S11300702AC0000028C0000026C0000024C00000E0
S113008022C0000020C000001EC0000011241FBEBA
S1130090CFEFD0E1DEBFCDBF11E0A0E0B1E0E8E7F3
S11300A0F2E000E00BBF02C007900D92A031B1074F
S11300B0D9F721E0A0E1B1E001C01D92A831B20757
S11300C0E1F7A2D0D7C09CCF1F920F920FB60F9228
S11300D011240BB60F922F933F935F936F937F93EB
S11300E08F939F93AF93BF93EF93FF9380911601E8
S11300F0909117018A3091056CF52091140130918B
S11301001501243631053CF42F5F3F4F3093150120
S11301102093140165C010921501109214016AE035
S113012070E081D090931301809312018EEF88BB0D
S1130130E0911201F0911301E050FF4F80818BBBDD
S11301408091160190911701019690931701809365
S1130150160146C020911401309115012436310551
S113016074F52F5F3F4F309315012093140120FD48
S113017013C08EEF88BB80911601909117016AE03D
S113018070E051D09093130180931201FC01E05070
S1130190FF4F80818BBB24C08DEF88BB80911601FB
S11301A0909117016AE070E03ED070931101609362
S11301B01001FB01E050FF4F80818BBB11C01092F6
S11301C015011092140101968436910529F090933B
S11301D017018093160104C01092170110921601A2
S11301E080E782BFFF91EF91BF91AF919F918F9173
S11301F07F916F915F913F912F910F900BBE0F9064
S11302000FBE0F901F9018958FEF8ABB87BB97E0A6
S113021093BF90E792BF91E097BF90E89FBF9EEF96
S113022098BB8BBBFFCF97FB072E16F4009406D028
S113023077FD08D00BD007FC05D03EF4909581954E
S11302409F4F0895709561957F4F0895AA1BBB1B1E
S113025051E107C0AA1FBB1FA617B70710F0A61BC2
S1130260B70B881F991F5A95A9F780959095BC01E3
S10B0270CD010895F894FFCFBD
S1130278C0F9A4B0999282F880908883C6A1868E2A
S9030000FC
