S0160000395F496E746572727570742834292E7372656324
S113000045C0000058C0000056C0000054C00000A5
S113001052C0000051C000004EC000004CC000009F
S11300204AC0000048C0000046C0000044C00000B0
S113003042C0000040C000003EC000003CC00000C0
S11300403AC0000038C0000036C0000034C00000D0
S113005032C0000030C000002EC000002CC00000E0
S11300602AC0000028C0000026C0000024C00000F0
S113007022C0000020C000001EC000001CC0000000
S11300801AC0000018C0000016C0000011241FBED2
S1130090CFEFD0E1DEBFCDBF11E0A0E0B1E0E0E101
S11300A0F1E000E00BBF02C007900D92A230B1074F
S11300B0D9F71DD02BC0A4CF1F920F920FB60F9269
S11300C011248F9380910001880F81608F3F19F074
S11300D08093000103C08EEF8093000180910001A2
S11300E08BBB8F910F900FBE0F901F9018958FEFC1
S11300F08ABB12B8809100018BBB80EF83B98AEA76
S11301008ABF80E189BF80E88FBFFFCFF894FFCF1B
S1050110FE00EB
S9030000FC
