S0100000375F4C43442836292E7372656324
S113000045C000004BC0000049C0000047C00000CC
S113001045C0000043C0000041C000003FC00000D4
S11300203DC000003BC0000039C0000037C00000E4
S113003035C0000033C0000031C000002FC00000F4
S11300402DC000002BC0000029C0000027C0000004
S113005025C0000023C0000021C000001FC0000014
S11300601DC000001BC0000019C0000017C0000024
S113007015C0000013C0000011C000000FC0000034
S11300800DC000000BC0000009C0000011241FBEF9
S1130090CFEFD0E1DEBFCDBF5AD0A1C0B1CF2FEF9B
S11300A03FE392E0215030409040E1F700C000006F
S11300B08BBB85B3867085BB85B3857085BBAA9AD7
S11300C085B3837085BB25E02A95F1F708958FEFFA
S11300D08ABB84B38F6084BB8FEF97ED0197F1F7F0
S11300E000C0000080E38BBB85B315BA8AE09BE3B4
S11300F00197F1F785B315BA80E791E00197F1F71D
S113010000C085B315BA88E3CADF88E0C8DF81E0A0
S1130110C6DF86E0C4DF8FE0C2CF08952FEF3FE350
S113012092E0215030409040E1F700C00000A89ACE
S113013095B3957095BBAA9A26EF2A95F1F78BBBD8
S113014036EF3A95F1F785B3837085BB0895EF9246
S1130150FF920F931F93CF93DF93CDB7DEB728970A
S11301600FB6F894DEBF0FBECDBF88E08E010F5FDF
S11301701F4FF801282F11922A95E9F799E09983E6
S113018025E12A839B838D838FE08E83A0DF80E427
S113019086DF7E0189E0E80EF11CF80181918F0170
S11301A0BDDFF9E929E581E0F15020408040E1F725
S11301B000000E151F0589F780EC71DF80E0AEDFCB
S11301C080E090E028960FB6F894DEBF0FBECDBF56
S11301D0DF91CF911F910F91FF90EF900895F894C4
S10501E0FFCF4B
S9030000FC
