S0100000375F4C43442837292E7372656323
S113000045C0000058C0000056C0000054C00000A5
S113001052C0000050C000004EC000004CC00000A0
S11300204AC0000048C0000046C0000044C00000B0
S113003042C0000040C000003EC000003CC00000C0
S11300403AC0000038C0000036C0000034C00000D0
S113005032C0000030C000002EC000002CC00000E0
S11300602AC0000028C0000026C0000024C00000F0
S113007022C0000020C000001EC000001CC0000000
S11300801AC0000018C0000016C0000011241FBED2
S1130090CFEFD0E1DEBFCDBF11E0A0E0B1E0E6E2FA
S11300A0F2E000E00BBF02C007900D92A830B10748
S11300B0D9F75AD0B6C0A4CF2FEF3FE392E0215036
S11300C030409040E1F700C000008BBB85B38670E0
S11300D085BB85B3857085BBAA9A85B3837085BBC0
S11300E025E02A95F1F708958FEF8ABB84B38F60DA
S11300F084BB8FEF97ED0197F1F700C0000080E318
S11301008BBB85B315BA8AE09BE30197F1F785B3FE
S113011015BA80E791E00197F1F700C085B315BAED
S113012088E3CADF88E0C8DF81E0C6DF86E0C4DF99
S11301308FE0C2CF08952FEF3FE392E0215030408B
S11301409040E1F700C00000A89A95B3957095BB64
S1130150AA9A26EF2A95F1F78BBB36EF3A95F1F779
S113016085B3837085BB0895EF92FF920F931F931D
S1130170CF93DF93CDB7DEB760970FB6F894DEBFA9
S11301800FBECDBF88E08E010F5F1F4FF801982F7F
S113019011929A95E9F799E0998325E12A839B8343
S11301A08D838FE08E8388E0E0E0F1E0DE01199634
S11301B001900D928A95E1F797DF80E47DDF7E015F
S11301C0E9E0EE0EF11CF80181918F01B4DF0E1508
S11301D01F05C9F788E470DF8E01075F1F4F7E019A
S11301E0F1E1EF0EF11CF80181918F01A4DF0E15EE
S11301F01F05C9F780E860DF80E09DDF80EC5CDFED
S113020081E099DF80E090E060960FB6F894DEBF5D
S11302100FBECDBFDF91CF911F910F91FF90EF9053
S10902200895F894FFCFDD
S10B02261D0505001F11111F45
S9030000FC
