S011000031355F436F756E74342E7372656311
S113000045C0000060C000005EC000005CC000008D
S11300105AC0000058C0000056C0000054C0000080
S113002052C0000050C000004EC000004CC0000090
S11300304AC0000048C0000046C0000044C00000A0
S113004043C0000040C000003EC000003CC00000AF
S11300503AC0000038C0000036C0000034C00000C0
S113006032C0000030C000002EC000002CC00000D0
S11300702AC0000028C0000026C0000024C00000E0
S113008022C0000020C000001EC0000011241FBEBA
S1130090CFEFD0E1DEBFCDBF11E0A0E0B1E0E6E7F5
S11300A0F1E000E00BBF02C007900D92A031B10750
S11300B0D9F721E0A0E1B1E001C01D92A431B2075B
S11300C0E1F748D056C09CCF1F920F920FB60F9203
S11300D011240BB60F922F933F938F939F93EF931B
S11300E0FF9380911001909111018436910534F4AD
S11300F0019690931101809310011EC0109211017A
S11301001092100180911201909113019C012F5FB4
S11301103F4F3093130120931201FC01E050FF4F35
S113012080818BBB80911201909113010A9724F076
S1130130109213011092120112BEFF91EF919F9140
S11301408F913F912F910F900BBE0F900FBE0F9088
S11301501F9018958FEF8ABB87BB8FE183BF80E91F
S113016081BF12BE82E087BF80E88FBF80EF88BB6B
S1090170FFCFF894FFCF5D
S1130176C0F9A4B0999282F880908883C6A1868E2D
S9030000FC
