S0160000395F496E746572727570742832292E7372656326
S113000045C0000060C000005EC000005CC000008D
S11300105AC0000059C000006BC000007DC0000041
S11300208FC0000050C000004EC000004CC0000053
S11300304AC0000048C0000046C0000044C00000A0
S113004042C0000040C000003EC000003CC00000B0
S11300503AC0000038C0000036C0000034C00000C0
S113006032C0000030C000002EC000002CC00000D0
S11300702AC0000028C0000026C0000024C00000E0
S113008022C0000020C000001EC0000011241FBEBA
S1130090CFEFD0E1DEBFCDBF11E0A0E0B1E0E0EDF5
S11300A0F1E000E00BBF02C007900D92A031B10750
S11300B0D9F721E0A0E1B1E001C01D92A231B2075D
S11300C0E1F752D083C09CCF1F920F920FB60F92CC
S11300D011248F939F9381E090E09093110180937A
S11300E010019F918F910F900FBE0F901F90189544
S11300F01F920F920FB60F9211248F939F9382E059
S113010090E090931101809310019F918F910F9033
S11301100FBE0F901F9018951F920F920FB60F925B
S113012011248F939F938EEF9FEF909311018093EF
S113013010019F918F910F900FBE0F901F901895F3
S11301401F920F920FB60F9211248F939F938FEFEC
S11301509FEF90931101809310019F918F910F90C5
S11301600FBE0F901F9018958FEF8ABB87BB12B8F4
S113017080EF83B989BF9AEA9ABF90E89FBF88BB92
S113018080E090E050E040E07FE060E0FC01E0507F
S1130190FF4F20812BBB2091100130911101820F60
S11301A0931F803191051CF4992324F005C0852FF9
S11301B0942F02C0872F962F2FEF3FEFECE22150B0
S11301C03040E040E1F700C00000E0CFF894FFCFFA
S11301D0C0F9A4B0999282F880908883C6A18E0059
S9030000FC
