:1000000045C0000060C000005EC000005CC0000091
:100010005AC0000059C0000071C0000054C0000068
:1000200052C0000050C000004EC000004CC0000094
:100030004AC0000048C0000046C0000044C00000A4
:1000400042C0000040C000003EC000003CC00000B4
:100050003AC0000038C0000036C0000034C00000C4
:1000600032C0000030C000002EC000002CC00000D4
:100070002AC0000028C0000026C0000024C00000E4
:1000800022C0000020C000001EC0000011241FBEBE
:10009000CFEFD0E1DEBFCDBF11E0A0E0B1E0E6E1FF
:1000A000F2E000E00BBF02C007900D92AC30B10748
:1000B000D9F721E0ACE0B1E001C01D92A031B20758
:1000C000E1F736D0A6C09CCF1F920F920FB60F92C9
:1000D00011248F9380E78FBF80910001811104C0AC
:1000E00081E08093000102C01092000180E88FBF80
:1000F0008F910F900FBE0F901F9018951F920F9227
:100100000FB60F9211248F9380E78FBF10920F01CB
:1001100010920E0110920D0110920C018FEF85BB11
:1001200080E88FBF8F910F900FBE0F901F90189592
:100130008FEF8ABB87BB84BB12B880EF83B989BFBE
:100140009AEA9ABF88BB88EF85BB81E08093000163
:1001500071E062E04EEF3DEF2BEF97EF54E048BBCC
:10016000E0910F01F0E0EF5FFE4F80818BBB38BB69
:10017000E0910E01F0E0EF5FFE4F80818BBB28BB6A
:10018000E0910D01F0E0EF5FFE4F80818BBB98BBEB
:10019000E0910C01F0E0EF5FFE4F80818BBBECEC57
:1001A000FCE13197F1F700C000008091000181303F
:1001B000B1F280910F018F5F8A3019F080930F01A7
:1001C0000AC010920F0180910E018F5F80930E0183
:1001D00085B3872785BB80910E018A3051F4109238
:1001E0000E0180910D018F5F80930D0185B38627ED
:1001F00085BB80910D018A3009F0B1CF10920D01BD
:1002000080910C018F5F80930C0185B3852785BB9E
:06021000A6CFF894FFCF19
:0C02160001C0F9A4B0999282F880900019
:00000001FF
