S013000031355F436F756E746572352E7372656337
S113000045C0000060C000005EC000005CC000008D
S11300105AC0000058C0000056C0000054C0000080
S113002052C0000050C000004EC000004CC0000090
S11300304AC0000048C0000046C0000044C00000A0
S113004043C0000040C000003EC000003CC00000AF
S11300503AC0000038C0000036C0000034C00000C0
S113006032C0000030C000002EC000002CC00000D0
S11300702AC0000028C0000026C0000024C00000E0
S113008022C0000020C000001EC0000011241FBEBA
S1130090CFEFD0E1DEBFCDBF11E0A0E0B1E0EAE4F4
S11300A0F1E000E00BBF02C007900D92A230B1074F
S11300B0D9F721E0A2E0B1E001C01D92A430B2075B
S11300C0E1F732D040C09CCF1F920F920FB60F922F
S11300D011248F939F9380910201909103018436A0
S11300E0910534F40196909303018093020113C0A7
S11300F08091000185BB80910001880F81608F3F52
S113010019F08093000103C08EEF809300011092D8
S113011003011092020180E782BF9F918F910F909B
S11301200FBE0F901F9018958FEF84BB97E093BF7D
S113013090E792BF91E097BF90E89FBF85BB809105
S10D0140000183B9FCCFF894FFCF4F
S105014AFE00B1
S9030000FC
