S0100000375F4C43442832292E7372656328
S113000045C0000058C0000056C0000054C00000A5
S113001052C0000050C000004EC000004CC00000A0
S11300204AC0000048C0000046C0000044C00000B0
S113003042C0000040C000003EC000003CC00000C0
S11300403AC0000038C0000036C0000034C00000D0
S113005032C0000030C000002EC000002CC00000E0
S11300602AC0000028C0000026C0000024C00000F0
S113007022C0000020C000001EC000001CC0000000
S11300801AC0000018C0000016C0000011241FBED2
S1130090CFEFD0E1DEBFCDBF11E0A0E0B1E0E6E9F3
S11300A0F1E000E00BBF02C007900D92AA30B10747
S11300B0D9F768D06EC0A4CF2FEF3FE392E0215070
S11300C030409040E1F700C000008BBB85B38670E0
S11300D085BB85B3857085BBAA9A85B3837085BBC0
S11300E025E02A95F1F708958FEF8ABB84B38F60DA
S11300F084BB8FEF97ED0197F1F700C0000080E318
S11301008BBB85B315BA8AE09BE30197F1F785B3FE
S113011015BA80E791E00197F1F700C085B315BAED
S113012088E3CADF88E0C8DF81E0C6DF86E0C4DF99
S11301308FE0C2CF08952FEF3FE392E0215030408B
S11301409040E1F700C00000A89A95B3957095BB64
S1130150AA9A26EF2A95F1F78BBB36EF3A95F1F779
S113016085B3837085BB0895CF93DF93EC018881B9
S1130170882329F02196DFDF89918111FCCFDF915B
S1130180CF910895B1DF80E091E0EEDF80E090E070
S10901900895F894FFCF6E
S10D019648656C6C6F20415652005E
S9030000FC
