S0160000395F496E746572727570742833292E7372656325
S113000045C000004BC0000049C0000047C00000CC
S113001045C0000044C0000041C000003FC00000D3
S11300203DC000003BC0000039C0000037C00000E4
S113003035C0000033C0000031C000002FC00000F4
S11300402DC000002BC0000029C0000027C0000004
S113005025C0000023C0000021C000001FC0000014
S11300601DC000001BC0000019C0000017C0000024
S113007015C0000013C0000011C000000FC0000034
S11300800DC000000BC0000009C0000011241FBEF9
S1130090CFEFD0E1DEBFCDBF0DD035C0B1CF1F92C1
S11300A00F920FB60F9211241ABE0F900FBE0F902D
S11300B01F9018958FEF8ABB12B880EF83B980E147
S11300C089BF8AEA8ABF80E88FBF8EEF8BBB2FEF90
S11300D03FE744E0215030404040E1F700C00000D9
S11300E08DEF9EEF01C0892F8BBB2FEF3FE744E0DC
S11300F0215030404040E1F700C00000880F81608B
S10D01008F3F91F7F0CFF894FFCF82
S9030000FC
