S0100000375F4C43442834292E7372656326
S113000045C0000058C0000056C0000054C00000A5
S113001052C0000050C000004EC000004CC00000A0
S11300204AC0000048C0000046C0000044C00000B0
S113003042C0000040C000003EC000003CC00000C0
S11300403AC0000038C0000036C0000034C00000D0
S113005032C0000030C000002EC000002CC00000E0
S11300602AC0000028C0000026C0000024C00000F0
S113007022C0000020C000001EC000001CC0000000
S11300801AC0000018C0000016C0000011241FBED2
S1130090CFEFD0E1DEBFCDBF11E0A0E0B1E0E8EFEB
S11300A0F1E000E00BBF02C007900D92AA31B10746
S11300B0D9F76ED09FC0A4CF2FEF3FE392E0215039
S11300C030409040E1F700C000008BBB85B38670E0
S11300D085BB85B3857085BBAA9A85B3837085BBC0
S11300E025E02A95F1F708958FEF8ABB84B38F60DA
S11300F084BB8FEF97ED0197F1F700C0000080E318
S11301008BBB85B315BA8AE09BE30197F1F785B3FE
S113011015BA80E791E00197F1F700C085B315BAED
S113012088E3CADF88E0C8DF81E0C6DF86E0C4DF99
S11301308FE0C2CF08952FEF3FE392E0215030408B
S11301409040E1F700C00000A89A95B3957095BB64
S1130150AA9A26EF2A95F1F78BBB36EF3A95F1F779
S113016085B3837085BB0895CF93DF93EC018881B9
S1130170882329F02196DFDF89918111FCCFDF915B
S1130180CF91089581E098CF089582E095CF0895A6
S1130190ABDF80E891DF80E091E0E6DF2FEF8FEFC7
S11301A09CE2215080409040E1F700C00000EADF6B
S11301B02FEF8FEF9CE2215080409040E1F700C088
S11301C0000080EC79DF8EE091E0CEDF2FEF8FEF3F
S11301D09CE2215080409040E1F700C00000D5DF50
S11301E02FEF8FEF9CE2215080409040E1F700C058
S10B01F00000CFCFF894FFCF0B
S11301F8436C65617220646973706C61790043753E
S10D020872736F7220686F6D650059
S9030000FC
