:1000000045C0000058C0000056C0000054C00000A9
:1000100052C0000051C000005DC0000069C0000077
:1000200075C0000048C0000046C0000044C0000089
:1000300042C0000040C000003EC000003CC00000C4
:100040003AC0000038C0000036C0000034C00000D4
:1000500032C0000030C000002EC000002CC00000E4
:100060002AC0000028C0000026C0000024C00000F4
:1000700022C0000020C000001EC000001CC0000004
:100080001AC0000018C0000016C0000011241FBED6
:10009000CFEFD0E1DEBFCDBF11E0A0E0B1E0E8E9F5
:1000A000F1E000E00BBF02C007900D92A031B10754
:1000B000D9F73AD06FC0A4CF1F920F920FB60F920C
:1000C00011248F938EEF88BB8F910F900FBE0F90EE
:1000D0001F9018951F920F920FB60F9211248F93B5
:1000E0008DEF88BB8F910F900FBE0F901F901895CA
:1000F0001F920F920FB60F9211248F938BEF88BB34
:100100008F910F900FBE0F901F9018951F920F9216
:100110000FB60F9211248F9387EF88BB8F910F90AA
:100120000FBE0F901F9018958FEF8ABB87BB12B838
:1001300080EF83B989BF9AEA9ABF90E89FBF88BBD6
:10014000809100018BBB2FEF6FE786E1215060406B
:100150008040E1F700C0000081E090E050E040E026
:1001600004C0C90102C0852F942F9C012F5F3F4F0F
:10017000FC01E050FF4F80818BBB9FEF6FE786E172
:10018000915060408040E1F700C00000203131050F
:0801900054F7E7CFF894FFCF0C
:10019800C0F9A4B0999282F880908883C6A1868E0F
:00000001FF
