:1000000045C0000060C000005EC000005CC0000091
:100010005AC0000076C10000C8C1000054C00000F2
:1000200052C0000050C000004EC000004CC0000094
:100030004AC0000048C0000046C0000044C00000A4
:1000400042C0000040C000003EC000003CC00000B4
:100050003AC0000038C0000036C0000034C00000C4
:1000600032C0000030C000002EC000002CC00000D4
:100070002AC0000028C0000026C0000024C00000E4
:1000800022C0000020C000001EC0000011241FBEBE
:10009000CFEFD0E1DEBFCDBF11E0A0E0B1E0E8E8F6
:1000A000F4E000E00BBF02C007900D92AA30B10748
:1000B000D9F721E0AAE0B1E001C01D92AE30B2074D
:1000C000E1F7A4D1DFC19CCFBF92CF92DF92EF9234
:1000D000FF920F931F93CF93DF930F2EFEEFDF2E30
:1000E000F02DEAE0F0E04DEF0F2EF0E0EF2EF1E022
:1000F000FF2EF02D0F2EFBEFCF2EF02DC4E6D0E01B
:100100000F2EF7EFBF2EF02D08EE13E0E5C0809123
:100110000C0190910D01893E53E095070CF443C00A
:10012000D8BA80910C0190910D01BF0184D1DC01FE
:10013000A050BF4F8C918BBB86EF8A95F1F748BBDF
:1001400080910C0190910D01BF0175D1CB01BF01D0
:1001500072D1DC01A050BF4F8C918BBB96EF9A956A
:10016000F1F7C8BA80910C0190910D01BE0163D1E5
:10017000CB01BF0160D1DC01A050BF4F8C918BBB84
:10018000A6EFAA95F1F7B8BA80910C0190910D01F4
:10019000B80151D1DB01A050BF4F8C918BBBB6EFA2
:1001A000BA95F1F783C0853691050CF43DC0D8BAF5
:1001B00080910C0190910D01BF013DD1DC01A05057
:1001C000BF4F8C918BBB85EF90E00197F1F700C09A
:1001D000000048BB80910C0190910D01BF012BD113
:1001E000CB01BF0128D1DC01A050BF4F8C918BBB4C
:1001F000A5EFB0E01197F1F700C00000C8BA8091F8
:100200000C0190910D01BE0116D1CB01BF0113D19C
:10021000DC01A050BF4F8C918BBB85EF90E0019724
:10022000F1F700C0000042C00B9734F1D8BA8091BA
:100230000C0190910D01BF01FED0DC01A050BF4F19
:100240008C918BBBA0E7B1E01197F1F700C048BBE0
:1002500080910C0190910D01BF01EDD0CB01BF0148
:10026000EAD0DC01A050BF4F8C918BBB80E791E0BE
:100270000197F1F700C01AC0D8BA80910C01909193
:100280000D01BF01D8D0DC01A050BF4F8C918BBBBA
:10029000A0E7B1E01197F1F700C048BBD7018C91FE
:1002A0008BBB80E791E00197F1F700C02150310945
:1002B0002115310509F02BCF80910C0190910D0192
:1002C000019690930D0180930C018031974224F0A8
:1002D00010920D0110920C0181B190E080959095E3
:1002E00080739927892B19F422E330E010CFDF9136
:1002F000CF911F910F91FF90EF90DF90CF90BF9023
:1003000008951F920F920FB60F9211240BB60F9201
:100310002F933F934F935F936F937F938F939F930D
:10032000AF93BF93EF93FF9326E686EE90E02150C4
:1003300080409040E1F780910A0190910B01009775
:1003400059F4C2DE80910A0190910B0101969093BD
:100350000B0180930A0116C0019749F40B9BFECF55
:1003600082E090E090930B0180930A010BC0109201
:100370000D0110920C01809100018BBB10920B01BA
:1003800010920A01FF91EF91BF91AF919F918F91D0
:100390007F916F915F914F913F912F910F900BBE85
:1003A0000F900FBE0F901F9018951F920F920FB6CF
:1003B0000F9211240BB60F922F933F934F935F939D
:1003C0006F937F938F939F93AF93BF93EF93FF931D
:1003D0008FEF9FE80197F1F700C0000010920D0128
:1003E00010920C0171DEFF91EF91BF91AF919F913F
:1003F0008F917F916F915F914F913F912F910F90CE
:100400000BBE0F900FBE0F901F9018958FEF8ABBF9
:1004100087BB8FE084BB8CEF82B980EF88BB85BB44
:10042000909100019BBB83B98AE08ABF80E389BFBA
:1004300080E88FBFFFCF97FB072E16F4009406D0FD
:1004400077FD08D00BD007FC05D03EF49095819540
:100450009F4F0895709561957F4F0895AA1BBB1B10
:1004600051E107C0AA1FBB1FA617B70710F0A61BB4
:10047000B70B881F991F5A95A9F780959095BC01D5
:08048000CD010895F894FFCFAF
:0A048800C0F9A4B0999282F88090A8
:04000003000000C831
:00000001FF
